{
  "transactions": [
    {
      "hash": "0xb7b2365b32c78f65262b10c1cb6fe18ce34d3403e5600bc6855fa2793a5773e4",
      "transactionType": "CALL",
      "contractName": null,
      "contractAddress": "0x52bcba6ff60d1f4f5b2460ed2c1ed278fcdfa776",
      "function": "createVault((address,address,address,uint256,address,uint256,string,string,uint64,uint64,uint64),uint256)",
      "arguments": [
        "(0x0709F8B7BdEA284C7352A5b12505f3d70BF9C21b, 0x2A58A3D405c527491Daae4C62561B949e7F87EFE, 0x2A58A3D405c527491Daae4C62561B949e7F87EFE, 1, 0xE7e6EA2B6A1D7E7d80727290a86CCC9FE5fbe0C1, 50000000000000, TermMax USDC Vault V1 Plus, TMX-USDC-V1-PLUS, 10000000, 2000000, 10000000)",
        "1"
      ],
      "transaction": {
        "from": "0xe355d5d8aa52ef0fbbd037c4a3c5e6fd659cf46b",
        "to": "0x52bcba6ff60d1f4f5b2460ed2c1ed278fcdfa776",
        "gas": "0x737e3",
        "value": "0x0",
        "input": "0x8e49c884000000000000000000000000000000000000000000000000000000000000004000000000000000000000000000000000000000000000000000000000000000010000000000000000000000000709f8b7bdea284c7352a5b12505f3d70bf9c21b0000000000000000000000002a58a3d405c527491daae4c62561b949e7f87efe0000000000000000000000002a58a3d405c527491daae4c62561b949e7f87efe0000000000000000000000000000000000000000000000000000000000000001000000000000000000000000e7e6ea2b6a1d7e7d80727290a86ccc9fe5fbe0c100000000000000000000000000000000000000000000000000002d79883d2000000000000000000000000000000000000000000000000000000000000000016000000000000000000000000000000000000000000000000000000000000001a0000000000000000000000000000000000000000000000000000000000098968000000000000000000000000000000000000000000000000000000000001e84800000000000000000000000000000000000000000000000000000000000989680000000000000000000000000000000000000000000000000000000000000001a5465726d4d61782055534443205661756c7420563120506c75730000000000000000000000000000000000000000000000000000000000000000000000000010544d582d555344432d56312d504c555300000000000000000000000000000000",
        "nonce": "0xcb0",
        "chainId": "0x66eee"
      },
      "additionalContracts": [
        {
          "transactionType": "CREATE2",
          "address": "0x4c282f610dd14ebfb63b4038818cdc1ab4861229",
          "initCode": "0x3d602d80600a3d3981f3363d3d373d3d3d363d73ac19b3feb62681d004f667881a1afc65b36ded035af43d82803e903d91602b57fd5bf3"
        }
      ],
      "isFixedGasLimit": false
    },
    {
      "hash": "0x43a22387aab545ec9ecaded7efcb473e4ee16d32c28a9317f7c95a7a3dd18137",
      "transactionType": "CALL",
      "contractName": "ERC1967Proxy",
      "contractAddress": "0x0709f8b7bdea284c7352a5b12505f3d70bf9c21b",
      "function": null,
      "arguments": null,
      "transaction": {
        "from": "0xe355d5d8aa52ef0fbbd037c4a3c5e6fd659cf46b",
        "to": "0x0709f8b7bdea284c7352a5b12505f3d70bf9c21b",
        "gas": "0x16719",
        "value": "0x0",
        "input": "0x0f1e44f30000000000000000000000004c282f610dd14ebfb63b4038818cdc1ab48612290000000000000000000000002a58a3d405c527491daae4c62561b949e7f87efe0000000000000000000000000000000000000000000000000000000000000001",
        "nonce": "0xcb1",
        "chainId": "0x66eee"
      },
      "additionalContracts": [],
      "isFixedGasLimit": false
    }
  ],
  "receipts": [
    {
      "status": "0x1",
      "cumulativeGasUsed": "0x57dbc",
      "logs": [
        {
          "address": "0x4c282f610dd14ebfb63b4038818cdc1ab4861229",
          "topics": [
            "0x8be0079c531659141344cd1fd0a4f28419497f9722a3daafe3b4186f6b6457e0",
            "0x0000000000000000000000000000000000000000000000000000000000000000",
            "0x0000000000000000000000000709f8b7bdea284c7352a5b12505f3d70bf9c21b"
          ],
          "data": "0x",
          "blockHash": "0x0681dd0800b00ae8a258ac1d653b3769281d79fdf4b2d38438d299ac3e7ee7ed",
          "blockNumber": "0xa8a3380",
          "transactionHash": "0xb7b2365b32c78f65262b10c1cb6fe18ce34d3403e5600bc6855fa2793a5773e4",
          "transactionIndex": "0x1",
          "logIndex": "0x0",
          "removed": false
        },
        {
          "address": "0x4c282f610dd14ebfb63b4038818cdc1ab4861229",
          "topics": [
            "0x20affe2401825617c69366f8c3a3493d9822d1021d0b3023c4e77ea5b3d0fbc5",
            "0x00000000000000000000000052bcba6ff60d1f4f5b2460ed2c1ed278fcdfa776"
          ],
          "data": "0x0000000000000000000000000000000000000000000000000000000000989680",
          "blockHash": "0x0681dd0800b00ae8a258ac1d653b3769281d79fdf4b2d38438d299ac3e7ee7ed",
          "blockNumber": "0xa8a3380",
          "transactionHash": "0xb7b2365b32c78f65262b10c1cb6fe18ce34d3403e5600bc6855fa2793a5773e4",
          "transactionIndex": "0x1",
          "logIndex": "0x1",
          "removed": false
        },
        {
          "address": "0x4c282f610dd14ebfb63b4038818cdc1ab4861229",
          "topics": [
            "0xd28e9b90ee9b37c5936ff84392d71f29ff18117d7e76bcee60615262a90a3f75",
            "0x00000000000000000000000052bcba6ff60d1f4f5b2460ed2c1ed278fcdfa776"
          ],
          "data": "0x0000000000000000000000000000000000000000000000000000000000000001",
          "blockHash": "0x0681dd0800b00ae8a258ac1d653b3769281d79fdf4b2d38438d299ac3e7ee7ed",
          "blockNumber": "0xa8a3380",
          "transactionHash": "0xb7b2365b32c78f65262b10c1cb6fe18ce34d3403e5600bc6855fa2793a5773e4",
          "transactionIndex": "0x1",
          "logIndex": "0x2",
          "removed": false
        },
        {
          "address": "0x4c282f610dd14ebfb63b4038818cdc1ab4861229",
          "topics": [
            "0x0cdc8c1df674ca6c4f86f6d47b02a15083c5d3bf098ea38f02c2762bad0afad2",
            "0x00000000000000000000000052bcba6ff60d1f4f5b2460ed2c1ed278fcdfa776"
          ],
          "data": "0x00000000000000000000000000000000000000000000000000000000001e8480",
          "blockHash": "0x0681dd0800b00ae8a258ac1d653b3769281d79fdf4b2d38438d299ac3e7ee7ed",
          "blockNumber": "0xa8a3380",
          "transactionHash": "0xb7b2365b32c78f65262b10c1cb6fe18ce34d3403e5600bc6855fa2793a5773e4",
          "transactionIndex": "0x1",
          "logIndex": "0x3",
          "removed": false
        },
        {
          "address": "0x4c282f610dd14ebfb63b4038818cdc1ab4861229",
          "topics": [
            "0x37df918c2fd5f0501a9fdf1651bcdbad7a05d7b163702a82bbe497ee835ebc47",
            "0x00000000000000000000000052bcba6ff60d1f4f5b2460ed2c1ed278fcdfa776"
          ],
          "data": "0x0000000000000000000000000000000000000000000000000000000000989680",
          "blockHash": "0x0681dd0800b00ae8a258ac1d653b3769281d79fdf4b2d38438d299ac3e7ee7ed",
          "blockNumber": "0xa8a3380",
          "transactionHash": "0xb7b2365b32c78f65262b10c1cb6fe18ce34d3403e5600bc6855fa2793a5773e4",
          "transactionIndex": "0x1",
          "logIndex": "0x4",
          "removed": false
        },
        {
          "address": "0x4c282f610dd14ebfb63b4038818cdc1ab4861229",
          "topics": [
            "0xcb11cc8aade2f5a556749d1b2380d108a16fac3431e6a5d5ce12ef9de0bd76e3",
            "0x00000000000000000000000052bcba6ff60d1f4f5b2460ed2c1ed278fcdfa776"
          ],
          "data": "0x0000000000000000000000002a58a3d405c527491daae4c62561b949e7f87efe",
          "blockHash": "0x0681dd0800b00ae8a258ac1d653b3769281d79fdf4b2d38438d299ac3e7ee7ed",
          "blockNumber": "0xa8a3380",
          "transactionHash": "0xb7b2365b32c78f65262b10c1cb6fe18ce34d3403e5600bc6855fa2793a5773e4",
          "transactionIndex": "0x1",
          "logIndex": "0x5",
          "removed": false
        },
        {
          "address": "0x4c282f610dd14ebfb63b4038818cdc1ab4861229",
          "topics": [
            "0x51fa58fd85e72d533eb3933ef4dd0bb83a9614f46e076ffa025b0dcbb8dff315",
            "0x00000000000000000000000052bcba6ff60d1f4f5b2460ed2c1ed278fcdfa776"
          ],
          "data": "0x00000000000000000000000000000000000000000000000000002d79883d2000",
          "blockHash": "0x0681dd0800b00ae8a258ac1d653b3769281d79fdf4b2d38438d299ac3e7ee7ed",
          "blockNumber": "0xa8a3380",
          "transactionHash": "0xb7b2365b32c78f65262b10c1cb6fe18ce34d3403e5600bc6855fa2793a5773e4",
          "transactionIndex": "0x1",
          "logIndex": "0x6",
          "removed": false
        },
        {
          "address": "0x4c282f610dd14ebfb63b4038818cdc1ab4861229",
          "topics": [
            "0xbd0a63c12948fbc9194a5839019f99c9d71db924e5c70018265bc778b8f1a506"
          ],
          "data": "0x0000000000000000000000002a58a3d405c527491daae4c62561b949e7f87efe",
          "blockHash": "0x0681dd0800b00ae8a258ac1d653b3769281d79fdf4b2d38438d299ac3e7ee7ed",
          "blockNumber": "0xa8a3380",
          "transactionHash": "0xb7b2365b32c78f65262b10c1cb6fe18ce34d3403e5600bc6855fa2793a5773e4",
          "transactionIndex": "0x1",
          "logIndex": "0x7",
          "removed": false
        },
        {
          "address": "0x4c282f610dd14ebfb63b4038818cdc1ab4861229",
          "topics": [
            "0xc7f505b2f371ae2175ee4913f4499e1f2633a7b5936321eed1cdaeb6115181d2"
          ],
          "data": "0x0000000000000000000000000000000000000000000000000000000000000001",
          "blockHash": "0x0681dd0800b00ae8a258ac1d653b3769281d79fdf4b2d38438d299ac3e7ee7ed",
          "blockNumber": "0xa8a3380",
          "transactionHash": "0xb7b2365b32c78f65262b10c1cb6fe18ce34d3403e5600bc6855fa2793a5773e4",
          "transactionIndex": "0x1",
          "logIndex": "0x8",
          "removed": false
        },
        {
          "address": "0x52bcba6ff60d1f4f5b2460ed2c1ed278fcdfa776",
          "topics": [
            "0xfac42f3698c5904e90fb16020492752ee10a041c8365163937481c1ad53000a9",
            "0x0000000000000000000000004c282f610dd14ebfb63b4038818cdc1ab4861229",
            "0x000000000000000000000000e355d5d8aa52ef0fbbd037c4a3c5e6fd659cf46b"
          ],
          "data": "0x00000000000000000000000000000000000000000000000000000000000000200000000000000000000000000709f8b7bdea284c7352a5b12505f3d70bf9c21b0000000000000000000000002a58a3d405c527491daae4c62561b949e7f87efe0000000000000000000000002a58a3d405c527491daae4c62561b949e7f87efe0000000000000000000000000000000000000000000000000000000000000001000000000000000000000000e7e6ea2b6a1d7e7d80727290a86ccc9fe5fbe0c100000000000000000000000000000000000000000000000000002d79883d2000000000000000000000000000000000000000000000000000000000000000016000000000000000000000000000000000000000000000000000000000000001a0000000000000000000000000000000000000000000000000000000000098968000000000000000000000000000000000000000000000000000000000001e84800000000000000000000000000000000000000000000000000000000000989680000000000000000000000000000000000000000000000000000000000000001a5465726d4d61782055534443205661756c7420563120506c75730000000000000000000000000000000000000000000000000000000000000000000000000010544d582d555344432d56312d504c555300000000000000000000000000000000",
          "blockHash": "0x0681dd0800b00ae8a258ac1d653b3769281d79fdf4b2d38438d299ac3e7ee7ed",
          "blockNumber": "0xa8a3380",
          "transactionHash": "0xb7b2365b32c78f65262b10c1cb6fe18ce34d3403e5600bc6855fa2793a5773e4",
          "transactionIndex": "0x1",
          "logIndex": "0x9",
          "removed": false
        }
      ],
      "logsBloom": "0x000000020000000080000000000000408004000000000008008800000202000000000000000000000148000000000000000000000000000000000000000002000008000000002000000000080000000000018000000000000000000008000000000000000200004008004000000008000000000000000000000000000000014a0000000000000000000800000040000200000000000080000000000000000000000000000000000000000000000000028000080000000000000000000000000000002000000004000002000000004000000000000004000000000000000020040100000000000021010000000000000000000200000000400000100000004000",
      "type": "0x2",
      "transactionHash": "0xb7b2365b32c78f65262b10c1cb6fe18ce34d3403e5600bc6855fa2793a5773e4",
      "transactionIndex": "0x1",
      "blockHash": "0x0681dd0800b00ae8a258ac1d653b3769281d79fdf4b2d38438d299ac3e7ee7ed",
      "blockNumber": "0xa8a3380",
      "gasUsed": "0x57dbc",
      "effectiveGasPrice": "0x5f5e100",
      "from": "0xe355d5d8aa52ef0fbbd037c4a3c5e6fd659cf46b",
      "to": "0x52bcba6ff60d1f4f5b2460ed2c1ed278fcdfa776",
      "contractAddress": null,
      "gasUsedForL1": "0x0",
      "l1BlockNumber": "0x86c1c5",
      "timeboosted": false
    },
    {
      "status": "0x1",
      "cumulativeGasUsed": "0x19d2bc",
      "logs": [
        {
          "address": "0x4c282f610dd14ebfb63b4038818cdc1ab4861229",
          "topics": [
            "0x74dc60cbc81a9472d04ad1d20e151d369c41104d655ed3f2f3091166a502cd8d",
            "0x0000000000000000000000002a58a3d405c527491daae4c62561b949e7f87efe"
          ],
          "data": "0x0000000000000000000000000000000000000000000000000000000000000001",
          "blockHash": "0x05b519ec0367e4d76c8150172c0d3eb4d30f8e6bed47a873f466eb5c5f5924ac",
          "blockNumber": "0xa8a3388",
          "transactionHash": "0x43a22387aab545ec9ecaded7efcb473e4ee16d32c28a9317f7c95a7a3dd18137",
          "transactionIndex": "0x8",
          "logIndex": "0x1f",
          "removed": false
        }
      ],
      "logsBloom": "0x00000000000000000000000000000000000000000000000000000000020000000000000000040000000000000000000000000000000000000000000000000000000000000000000000000000000000000000000000000000000000000000000000000200040000400000000000000000000000000000800000000000000000000000000000000000000000000000000000000000000000000000000000000000000000000000000000000000000000000000000000000000000000000000000000000000000000000000000000000000000000000000000000000000000000000000000000000001010000000000000000000000000800000000000000000000",
      "type": "0x2",
      "transactionHash": "0x43a22387aab545ec9ecaded7efcb473e4ee16d32c28a9317f7c95a7a3dd18137",
      "transactionIndex": "0x8",
      "blockHash": "0x05b519ec0367e4d76c8150172c0d3eb4d30f8e6bed47a873f466eb5c5f5924ac",
      "blockNumber": "0xa8a3388",
      "gasUsed": "0xf58a",
      "effectiveGasPrice": "0x5f5e100",
      "from": "0xe355d5d8aa52ef0fbbd037c4a3c5e6fd659cf46b",
      "to": "0x0709f8b7bdea284c7352a5b12505f3d70bf9c21b",
      "contractAddress": null,
      "gasUsedForL1": "0x0",
      "l1BlockNumber": "0x86c1c5",
      "timeboosted": false
    }
  ],
  "libraries": [],
  "pending": [],
  "returns": {},
  "timestamp": 1753351822,
  "chain": 421614,
  "commit": "d5964fe4"
}